:020000040000FA
:06000000A5EF09F012005B
:020006001200E6
:060008001FEF00F01200E2
:0600180016EF00F01200DB
:02001E000100DF
:0C002000A4130000600000004400000079
:04002C00DACFE4FF44
:10003000E2CFDAFFE652E552E5CFDAFF1100DACF80
:10004000E4FFE2CFDAFFE9CFE4FFEACFE4FFE652D4
:10005000D9CFE6FFE1CFD9FFE652DF6AF250040BB9
:1000600001E1E1D0000195519019E8AE02D0903540
:1000700004D08F51945D9051955901E2D4D095519F
:100080009019E8AE02D0903504D08F51945D905114
:10009000955903E2896A8A6AD39EFE0ED76EC70E0F
:1000A000D66E8B6A896A6051020A19E0030A10E071
:1000B000010A07E0030A01E017D08F0E8A6E606B19
:1000C00013D00F0E8A6E200E896E010E606F0CD059
:1000D0000F0E8A6E100E896E020E606F05D02F0E05
:1000E0008A6E030E606F00D0000EE76EA219E8AEB4
:1000F00002D0A23503D0E750D880A25517E2905124
:100100009919E8AE02D0993504D098518F5D995174
:1001100090590CE260C0E9FFEA6AE9BEEA686F0E36
:10012000E926000EEA22EF508B6E7DD0000EE76EBE
:100130006019E8AE02D0603503D0E750D880605532
:100140002EE27751605D16E160C0E9FFEA6AE9BE20
:10015000EA68730EE926000EEA22EFCFE9FFEA6AA9
:10016000E9BEEA68610EE926000EEA22EF50800F30
:100170008B6E14D060C0E9FFEA6AE9BEEA68730ECC
:10018000E926000EEA22EFCFE9FFEA6AE9BEEA6853
:10019000610EE926000EEA22EF508B6E44D090519A
:1001A0009719E8AE02D0973504D096518F5D9751DC
:1001B00090590CE2A0C0E9FFEA6AE9BEEA686D0E58
:1001C000E926000EEA22EF508B6E2DD07751605D4C
:1001D00016E160C0E9FFEA6AE9BEEA68730EE92643
:1001E000000EEA22EFCFE9FFEA6AE9BEEA68610E93
:1001F000E926000EEA22EF50800F8B6E14D060C00B
:10020000E9FFEA6AE9BEEA68730EE926000EEA220F
:10021000EFCFE9FFEA6AE9BEEA68610EE926000E5F
:10022000EA22EF508B6EF29400019E2B000E9F236A
:10023000F2A025D0D38E8050010B1EE1955190196C
:10024000E8AE02D0903504D08F51945D905195590D
:1002500013E39F519D19E8AE02D09D3504D09C5107
:100260009E5D9D519F5908E39E6B9F6BA05103E1DA
:10027000010EA06F01D0A06B8F6B906BF2908F2B53
:10028000000E902395519019E8AE02D0903504D01D
:100290008F51945D9051955904E2896A8A6A8B6AFC
:1002A000D39EE552E552E7CFD9FFE552E5CFEAFF0D
:1002B000E5CFE9FFE5CFDAFF1100D9CFE6FFE1CFC7
:1002C000D9FF040EE126FE0EDB0401E027D10C6A03
:1002D0000D6AC80E0E6E420E0F6E7FC007F080C012
:1002E00008F081C009F082C00AF0F8EC07F0010ABA
:1002F00010E10C6A0D6A0E6A0F6A7FC007F080C0B9
:1003000008F081C009F082C00AF0F8EC07F0010A99
:1003100022E10C6A0D6A200E0E6EC10E0F6E7FC0B8
:1003200007F080C008F081C009F082C00AF0EFEC4D
:1003300007F0010A2AE10C6A0D6A0E6A0F6A7FC093
:1003400007F080C008F081C009F082C00AF0F8EC24
:1003500007F0010A1AE10C6A0D6AC80E0E6E420E11
:100360000F6E7FC007F080C008F081C009F082C026
:100370000AF000EC07F0C0EC07F008C0DEFF09C08F
:10038000DDFF0001020E776F19D00C6A0D6A200E96
:100390000E6E410E0F6E7FC007F080C008F081C066
:1003A00009F082C00AF000EC07F0C0EC07F008C0CA
:1003B000DEFF09C0DDFF0001010E776F0C6A0D6AD8
:1003C0000E6A0F6A7FC007F080C008F081C009F094
:1003D00082C00AF0F8EC07F0010A0CE1086809682D
:1003E000DECF0DF0DDCF0EF093EC07F006C0DEFFA0
:1003F00007C0DDFFDECF14F0DDCF15F00A0E0D6E65
:100400000E6A14C008F015C009F06DEC07F004C0C6
:1004100014F005C015F014C073F0D9CFE9FFDACF9E
:10042000EAFF0A0E0D6E0E6AEECF08F0EDCF09F06E
:100430006DEC07F008C0EEFF09C0EDFFDECF14F051
:10044000DDCF15F00A0E0D6E0E6A14C008F015C04F
:1004500009F06DEC07F004C014F005C015F014C0ED
:1004600074F0D9CFE9FFDACFEAFF0A0E0D6E0E6AFB
:10047000EECF08F0EDCF09F06DEC07F008C0EEFF0D
:1004800009C0EDFFDECF14F0DDCF15F00A0E0D6EC2
:100490000E6A14C008F015C009F06DEC07F004C036
:1004A00014F005C015F014C075F0D9CFE9FFDACF0C
:1004B000EAFF0A0E0D6E0E6AEECF08F0EDCF09F0DE
:1004C0006DEC07F008C0EEFF09C0EDFF0C6A0D6A85
:1004D0000E6A0F6A7FC007F080C008F081C009F083
:1004E00082C00AF0F8EC07F0010A04E100010A0EEC
:1004F000766F13D0DECF14F0DDCF15F00A0E0D6E3F
:100500000E6A14C008F015C009F06DEC07F004C0C5
:1005100014F005C015F014C076F0C4D00C6A0D6A52
:10052000200E0E6E410E0F6E83C007F084C008F0DF
:1005300085C009F086C00AF0EFEC07F0010A1AE165
:100540000C6A0D6AC80E0E6E420E0F6E83C007F065
:1005500084C008F085C009F086C00AF000EC07F0FE
:10056000C0EC07F008C0DEFF09C0DDFF0001020E8D
:10057000776F19D00C6A0D6A200E0E6E410E0F6E49
:1005800083C007F084C008F085C009F086C00AF077
:1005900000EC07F0C0EC07F008C0DEFF09C0DDFF8B
:1005A0000001010E776FDECF14F0DDCF15F00A0EDB
:1005B0000D6E0E6A14C008F015C009F06DEC07F05E
:1005C00004C014F005C015F014C073F0D9CFE9FFD2
:1005D000DACFEAFF0A0E0D6E0E6AEECF08F0EDCF0D
:1005E00009F06DEC07F008C0EEFF09C0EDFFDECFAB
:1005F00014F0DDCF15F00A0E0D6E0E6A14C008F06F
:1006000015C009F06DEC07F004C014F005C015F03A
:1006100014C074F0D9CFE9FFDACFEAFF0A0E0D6EED
:100620000E6AEECF08F0EDCF09F06DEC07F008C0D0
:10063000EEFF09C0EDFFDECF14F0DDCF15F00A0E9E
:100640000D6E0E6A14C008F015C009F06DEC07F0CD
:1006500004C014F005C015F014C075F0D9CFE9FF3F
:10066000DACFEAFF0A0E0D6E0E6AEECF08F0EDCF7C
:1006700009F06DEC07F008C0EEFF09C0EDFFDECF1A
:1006800014F0DDCF15F00A0E0D6E0E6A14C008F0DE
:1006900015C009F06DEC07F004C014F005C015F0AA
:1006A00014C076F0D950020FE96EDACFEAFFEE50AF
:1006B000ED1002E0000E01D0010E020EDBCF14F0AF
:1006C000030EDBCF15F0D890155004E6040E145C31
:1006D000000E155837E2020EDBCFE9FF030EDBCF29
:1006E000EAFF730EE926000EEA22EFCF14F00A0E9D
:1006F000E76E1418E8AE02D0143403D0E750D88067
:1007000014540EE3020EDBCFE9FF030EDBCFEAFF4A
:10071000730EE926000EEA22EFCF15F015340CE334
:10072000020EDBCFE9FF030EDBCFEAFF730EE926F3
:10073000000EEA220B0EEF6E020EDB2A030E01E31F
:10074000DB2ABBD7040EE15C02E2E16AE552E16E0E
:10075000E552E7CFD9FF1200D9CFE6FFE1CFD9FFAD
:10076000FE0EDB0403E10001F30EA16FFE0EDB5071
:10077000020803E10001F50EA16FC580C5B0FED7E8
:10078000800EE66E2BEC09F0E552A1C0E6FF2BECE3
:1007900009F0E552C80EE66EC0EC09F0E552C580DE
:1007A000C5B0FED7810EE66E2BEC09F0E552B3EC36
:1007B00009F00001796FC59AC588C5B8FED7B3ECBA
:1007C00009F000017A6FC59AC588C5B8FED7B3ECA9
:1007D00009F000017B6FC58AC588C5B8FED7C584FE
:1007E000C5B4FED7FE0EDB046DE179C08BF00001CD
:1007F0008C6B8BBF8C698BC08CF08B6B7AC014F0C8
:10080000156A14BE15688B5114248B6F8C511520FA
:100810008C6F8BC008F08CC009F003EC06F007C0A9
:100820007FF008C080F009C081F00AC082F00C6A35
:100830000D6A800E0E6E470E0F6E7FC007F080C0EF
:1008400008F081C009F082C00AF0ADEC06F007C0E4
:100850007FF008C080F009C081F00AC082F0520E1B
:100860000C6EB80E0D6E2F0E0E6E430E0F6E7FC007
:1008700007F080C008F081C009F082C00AF000ECE7
:1008800007F007C07FF008C080F009C081F00AC0FF
:1008900082F0660E0C6E0D6E3B0E0E6E420E0F6EEB
:1008A0007FC007F080C008F081C009F082C00AF064
:1008B00016EC06F007C07FF008C080F009C081F098
:1008C0000AC082F0FE0EDB50020801E0C6D079C0FB
:1008D0008BF000018C6B8BBF8C698BC08CF08B6BA9
:1008E0007AC014F0156A14BE15688B5114248B6FEE
:1008F0008C5115208C6F8BC008F08CC009F003EC74
:1009000006F007C083F008C084F009C085F00AC073
:1009100086F00C6A0D6A800E0E6E470E0F6E83C055
:1009200007F084C008F085C009F086C00AF0ADEC7D
:1009300006F007C083F008C084F009C085F00AC043
:1009400086F00C6A0D6AFA0E0E6E420E0F6E83C0B0
:1009500007F084C008F085C009F086C00AF000ECFA
:1009600007F007C083F008C084F009C085F00AC012
:1009700086F00C6A0D6AC00E0E6E400E0F6E83C0BC
:1009800007F084C008F085C009F086C00AF016ECB4
:1009900006F007C083F008C084F009C085F00AC0E3
:1009A00086F09A0E146E990E156E190E166EBE0E06
:1009B000176E1C6A1D6AC80E1E6E410E1F6E7FC028
:1009C0000CF080C00DF081C00EF082C00FF01CC092
:1009D00007F01DC008F01EC009F01FC00AF016EC99
:1009E00006F007C018F008C019F009C01AF00AC0D4
:1009F0001BF018C00CF019C00DF01AC00EF01BC08F
:100A00000FF014C007F015C008F016C009F017C0A9
:100A10000AF000EC07F007C087F008C088F009C0B2
:100A200089F00AC08AF087C00CF088C00DF089C038
:100A30000EF08AC00FF083C007F084C008F085C0B4
:100A400009F086C00AF017EC06F007C083F008C072
:100A500084F009C085F00AC086F000018B6B8C6BB6
:100A6000E552E7CFD9FF1200C580C5B0FED7800E92
:100A7000E66E2BEC09F0E552E70EE66E2BEC09F082
:100A8000E552640EE66EC0EC09F0E552C580C5B0D3
:100A9000FED7810EE66E2BEC09F0E552B3EC09F0BF
:100AA000400B0001A26FC58AC588C5B8FED7C584B2
:100AB000C5B4FED71200C580C5B0FED7800EE66E65
:100AC0002BEC09F0E552E70EE66E2BEC09F0E5524F
:100AD000640EE66EC0EC09F0E552C580C5B0FED7E5
:100AE000810EE66E2BEC09F0E552B3EC09F0146EC2
:100AF00014C009F0F0EC05F007C07FF008C080F0EA
:100B000009C081F00AC082F0C58AC588C5B8FED781
:100B1000C580C5B0FED7800EE66E2BEC09F0E5521D
:100B2000E60EE66E2BEC09F0E552020EE66E2BECBB
:100B300009F0E552C584C5B4FED712007F94780E43
:100B4000E66EC0EC09F0E5520001A3511AE12CD881
:100B5000E80EE66EC0EC09F0E55229D8936A946A73
:100B60009388938C0001010EA36FD38E800EE66EE6
:100B70000B0EE66E64EC09F0E552E552770EC86E96
:100B80009ADF0001A029E66EE7DDE552C80EE66EA9
:100B9000C0EC09F0E55268DF0001A029E66E5DECCB
:100BA00001F0E55203001200960ED36E1200CF0E34
:100BB000926E806AF180030E796EF286D59CD59A8A
:100BC000D586FE0ED76EC70ED66ED58ED08EF28C21
:100BD000F28EF28AF28AF184F294D58EF28E1200AD
:100BE000019E05D0019E09AE02D0096C018E09C09C
:100BF00003F0026A136A126A860E046E056A72EFC7
:100C000008F0019E08D0019E09AE05D0086C091EAF
:100C1000E86A0922018E09C003F008C002F0136AD5
:100C2000126A8E0E046E056A72EF08F00F7E016A7A
:100C3000AEEC08F0C6EC08F001B656EF08F001A2E1
:100C40000AD001AA03D001BE56EF08F001A462EF5A
:100C500008F05FEF08F001AA05D001AC62EF08F0E0
:100C60005FEF08F001A00AD001A808D001BE04D0AF
:100C700001A402D06BEF08F06FEF08F0126A056A6A
:100C80000F500A5C116E10E307C013F008C002F0A9
:100C900009C003F00AC010F00CC007F00DC008F046
:100CA0000EC009F0013A09D00CC013F00DC002F0DB
:100CB0000EC003F00FC010F0116C019E01BC018E3C
:100CC00010C004F001B09EEF08F01A0E11609EEF04
:100CD00008F0046A0A6A01A408D0076C081E091EFD
:100CE0000A1EE86A082209220A2201AC08D0136C05
:100CF000021E031E041EE86A022203220422066A60
:100D0000115207E00A340932083207320632112E36
:100D1000F9D70750132608500222095003220A501F
:100D2000042206C012F0019E04AE0BD0126C131EFA
:100D3000021E031E041EE86A13220222032204225A
:100D4000018E04A006D0D880033202321332123250
:100D5000102A10C004F072EF08F0016AAEEC08F03F
:100D6000C6EC08F001B656EF08F001A205D001BAB2
:100D700056EF08F05DEF08F001BA69EF08F001A046
:100D800005D001B856EF08F069EF08F001B85DEF43
:100D900008F0056A7F0E0A24046EE86A05220F50E7
:100DA000045EE86A055A1A0E106E0A6A126A136A1D
:100DB000026A036A0C50075E0D50085A0E50095A19
:100DC000000E0A5A09E70C5007260D5008220E5053
:100DD0000922000E0A2201D0128AD890073608365E
:100DE00009360A36D8901236133602360336102EDC
:100DF000E1D7095008100710D8A4128A72EF08F042
:100E0000016AAEEC08F0C6EC08F001B656EF08F047
:100E100001A205D001B856EF08F05DEF08F001AA75
:100E200005D001B056EF08F05DEF08F001B002D038
:100E300001A802D069EF08F0056A0F500A24046E79
:100E4000E86A05227E0E045EE86A055A126A136A91
:100E5000026A036A0E500902F4CF03F0F3CF02F0E6
:100E60000D500902F3501326F4500222000E032203
:100E70000E500802F3501326F4500222000E0322F3
:100E80000C500902F3501226F4501322000E0222D5
:100E900003220D500802F3501226F4501322000EC4
:100EA000022203220E500702F3501226F45013229E
:100EB000000E022203220C500802F4501226000EEB
:100EC0001322022203220D500702F4501226000EB4
:100ED00013220222032272EF08F0006A0EAE76EFB0
:100EE00007F00D6C0E1EE86A0E22001E09AE7EEFA2
:100EF00007F0086C091EE86A0922001E7FEC09F061
:100F000009BE8EEF07F000AE000C086C091EE86AFF
:100F10000922046C051EE86A0522000C00BE85EF5C
:100F200007F00188FF0C09C013F008C012F0085048
:100F30000D02F4CF07F0F3CF06F009500E02F4CF04
:100F400009F0F3CF08F00D02F3500726F450082201
:100F5000E86A092212500E02F3500726F4500822C4
:100F6000E86A09220EAEB9EF07F01250085E13507E
:100F7000095A13AE000C0D50085E0E50095A000CB1
:100F8000016AAEEC08F001B6CAEF07F001A20ED07C
:100F900001B405D07F0E096EFF0E086E1FD0800EC3
:100FA000096E086A1BD0096A086A18D001B0FBD71D
:100FB0008F0E0A60EDD77E0E0A64F5D78E0E0A5C9E
:100FC00005E0D890093208320A2AF8D701A406D0E1
:100FD000086C091EE86A092209AEE5D7120001EC87
:100FE00008F001B6000C01B0000C01B4000C010CBB
:100FF00001EC08F001B6000C01B0000C01A4000CDB
:10100000010C016AAEEC08F0C6EC08F001B6120063
:1010100001AE08D001A004D001A802D001801200C6
:10102000019012000F500A5C0BE10E50095C08E1C0
:101030000D50085C05E10C50075C02E101801200D4
:10104000D8A002D0018E10D00A500FC00AF00F6E47
:1010500009500EC009F00E6E08500DC008F00D6E5C
:1010600007500CC007F00C6E0F500A5C10E0FF0F29
:1010700009E0019001B403D001AE0184120001AE79
:10108000019412000F2AD8900E320D320C320C50FF
:10109000075E0D50085A0E50095A09BEEAD7D8907B
:1010A0000736083609360A2EF8D7C8D77F0E0A6EDB
:1010B000FF0E096E086E076E12007F0E01BEFF0E56
:1010C0000A6E02D07F0E0A6E800E096E086A076AE9
:1010D000F3D701AE04D0800E0A6E096AF7D70A6A08
:1010E000096AF4D70350021013101210F8E005BE7D
:1010F000F0D703BE0CD004500510EBE0D8901236A8
:101100001336023603360406D8A00506F2D705507A
:10111000D4E10428D2E012AE11D07F0E121402E105
:1011200013A00CD0132AE86A0222032207E3D88016
:10113000033202321332042A0428BFE00450C9E00B
:1011400013C007F002C008F00334096E04300A6EC1
:1011500009320A9E01BE0A8E5CEF08F009360A3693
:1011600002E30184017E06E101800A6A096A086AD5
:10117000076A12000A2803E0D88009321200D890CA
:10118000093202E101821200018612000E360F368A
:1011900002E3018C017E06E101880F6A0E6A0D6A86
:1011A0000C6A12000F2803E0D8800E321200D8908B
:0811B0000E32EAE1018A12008F
:0811B8001E0EF66E000EF76E2C
:1011C000000EF86E00010900F550A96F0900F550F6
:1011D000AA6F03E1A96701D03DD00900F550A46FC3
:1011E0000900F550A56F0900F550A66F0900090028
:1011F000F550E96E0900F550EA6E09000900090092
:10120000F550A76F0900F550A86F09000900F6CF47
:10121000ABF0F7CFACF0F8CFADF0A4C0F6FFA5C0AF
:10122000F7FFA6C0F8FF0001A75302E1A85307E0AB
:101230000900F550EE6EA707F8E2A807F9D7ABC092
:10124000F6FFACC0F7FFADC0F8FF0001A907000E24
:06125000AA5BBFD71200EB
:0A125600D9CFE6FFDACFE6FFE1CFC3
:10126000D9FFE2CFDAFFFD0EDB50C96EC6AE02D069
:10127000FF0E24D00F0EC61408080FE00F0EC61480
:101280000B080BE0C6889EA6FED7C750040B03E1EF
:10129000C750010B10E0000E11D00F0EC614080845
:1012A00004E00F0EC6140B0809E1C7B0FED7CBEC63
:1012B00009F0C5AC02D0FE0E01D0000EE552E5CF1C
:0812C000DAFFE7CFD9FF1200AD
:0812C800D9CFE6FFDACFE6FF03
:1012D000E1CFD9FFE2CFDAFF3F0EC716C66AC56A73
:1012E000FD0EDB50C612FC0EDB50C712938C9388A8
:0E12F000C68AE552E5CFDAFFE7CFD9FF12003C
:0212FE00056A7F
:10130000046A100EE76ED8900836093604360536A2
:101310000D50045C0E50055805E30D50045E0E5050
:0A132000055A082AE72EF0D7120044
:06132A00000EF36E00EE60
:1013300000F0030E01D81200EA6002D0EE6AFCD77A
:0A134000F350E9601200EE6AFCD7DA
:06134A0011EE00F021EE9F
:1013500000F0F86A019CDCEC08F003EC00F09EEC75
:0613600005F0FBD71200AE
:0A1366000F0EC614080804E00F0E75
:10137000C6140B0801E1C586C7A0FED7C9501200EC
:10138000FF0EE350E84E1200000000D000D000D065
:06139000E82EFAD712005E
:0A1396001F0EC514FDE1C750040B43
:0413A000FAE112005C
:0C13A400003F065B4F666D7D077F6740D1
:1013B000795E747878777C000000000500000000FA
:1013C000000000000000000000000000000000001D
:1013D0000000000000000001D007F4012C01F4011E
:0813E0000A00000000000000FB
:020000040030CA
:0100010008F6
:0100020019E4
:010003001EDE
:010006008178
:00000001FF
