:020000040000FA
:06000000F6EF01F0120012
:020006001200E6
:060008001FEF00F01200E2
:0600180016EF00F01200DB
:02001E000100DF
:0C00200046040000600000002700000003
:04002C00DACFE4FF44
:10003000E2CFDAFFE652E552E5CFDAFF1100DACF80
:10004000E4FFE2CFDAFFE9CFE4FFEACFE4FFE652D4
:10005000D9CFE6FFE1CFD9FFE652DF6AF2A45BD049
:10006000FE0ED76EC70ED66E000E0001E76E701939
:10007000E8AE02D0703503D0E750D880705501E269
:10008000702B70C000F0016A00BE01688351011836
:10009000E8AE02D0013404D00050825D0150835993
:1000A00002E2706B806A8B6A896A6051020A19E009
:1000B000030A10E0010A07E0030A01E017D08F0EDF
:1000C0008A6E606B13D00F0E8A6E200E896E010E41
:1000D000606F0CD00F0E8A6E100E896E020E606F6C
:1000E00005D02F0E8A6E030E606F00D060C0E9FF4E
:1000F000EA6AE9BEEA686C0EE926000EEA22EFCF52
:10010000E9FFEA6AE9BEEA68610EE926000EEA2222
:10011000EF508B6EF294F2A009D000017B6B7C6BE8
:10012000D38E80B002D0320E896EF29000017B2B0C
:10013000000E7C2381517C19E8AE02D07C3504D0BE
:100140007B51805D7C51815903E2D39E0F0E8A6EF4
:10015000E552E552E7CFD9FFE552E5CFEAFFE5CF1B
:10016000E9FFE5CFDAFF11009388938C780EE66EF5
:1001700011EC02F0E5520001865168E169D8E80E01
:10018000E66E11EC02F0E552800EE66E0B0EE66EA6
:10019000CBEC01F0E552E552770EC86E1CEC02F094
:1001A000C580C5B0FED7800EE66E92EC01F0E55238
:1001B0001CEC02F0F30EE66E92EC01F0E5521CEC42
:1001C00002F0C582C5B2FED7810EE66E92EC01F058
:1001D000E55204EC02F00001716FC59AC588C5B8FC
:1001E000FED704EC02F00001726FC59AC588C5B84D
:1001F000FED704EC02F00001736FC58AC588C5B84C
:10020000FED7C584C5B4FED7000171A103D000019B
:10021000010E6C6F000E0001711503E00001010E6C
:100220006D6F000E0001711503E00001010E6E6F8D
:10023000000E0001711503E00001010E6F6F0BD875
:10024000936A946A0001010E866FD38E0300120038
:10025000960ED36E1200CF0E926E806AF180030E5E
:10026000796ED59CD59AD586FE0ED76EC70ED66E02
:10027000D58ED08EF28CF28EF28AF28AF184F294CC
:06028000D58EF28E120083
:0A0286001E0EF66E000EF76E000E5D
:10029000F86E00010900F5508C6F0900F5508D6F64
:1002A00003E18C6701D03DD00900F550876F09004C
:1002B000F550886F0900F550896F09000900F55065
:1002C000E96E0900F550EA6E090009000900F550D1
:1002D0008A6F0900F5508B6F09000900F6CF8EF088
:1002E000F7CF8FF0F8CF90F087C0F6FF88C0F7FF08
:1002F00089C0F8FF00018A5302E18B5307E009002F
:10030000F550EE6E8A07F8E28B07F9D78EC0F6FF3C
:100310008FC0F7FF90C0F8FF00018C07000E8D5BC7
:04032000BFD7120031
:0C032400D9CFE6FFDACFE6FFE1CFD9FF2A
:10033000E2CFDAFFFD0EDB50C96EC6AE02D0FF0E73
:1003400024D00F0EC61408080FE00F0EC6140B08B9
:100350000BE0C6889EA6FED7C750040B03E1C7502A
:10036000010B10E0000E11D00F0EC614080804E0B7
:100370000F0EC6140B0809E1C7B0FED71CEC02F043
:10038000C5AC02D0FE0E01D0000EE552E5CFDAFF7B
:06039000E7CFD9FF1200C7
:0A039600D9CFE6FFDACFE6FFE1CF92
:1003A000D9FFE2CFDAFF3F0EC716C66AC56AFD0E57
:1003B000DB50C612FC0EDB50C712938C9388C68AA2
:0C03C000E552E5CFDAFFE7CFD9FF1200CD
:0403CC00000EF36EBE
:1003D00000EE00F0030E01D81200EA6002D0EE6ACF
:0C03E000FCD7F350E9601200EE6AFCD775
:0403EC0011EE00F01E
:1003F00021EE00F0F86A039C43EC01F003EC00F0FE
:08040000B4EC00F0FBD7120080
:080408000F0EC614080804E001
:100410000F0EC6140B0801E1C586C7A0FED7C95050
:020420001200C8
:0E042200FF0EE350E84E1200000000D000D0A4
:0804300000D0E82EFAD71200FB
:080438001F0EC514FDE1C750C1
:06044000040BFAE11200BA
:0A044600003F065B4F666D7D077FE7
:1004500067790000000000000000000000000000BC
:0D0460000000000000016E280A00F40100F9
:020000040030CA
:0100010008F6
:0100020019E4
:010003001EDE
:010006008178
:00000001FF
